{
  "abi": [
    {
      "inputs": [],
      "stateMutability": "nonpayable",
      "type": "constructor"
    },
    {
      "inputs": [],
      "name": "notWhitelisted",
      "type": "error"
    },
    {
      "inputs": [
        {
          "internalType": "string",
          "name": "",
          "type": "string"
        }
      ],
      "name": "runtimeError",
      "type": "error"
    },
    {
      "inputs": [],
      "name": "tierOutOfRange",
      "type": "error"
    },
    {
      "inputs": [],
      "name": "updatingTierTooLate",
      "type": "error"
    },
    {
      "anonymous": false,
      "inputs": [
        {
          "indexed": true,
          "internalType": "address",
          "name": "account",
          "type": "address"
        },
        {
          "indexed": true,
          "internalType": "address",
          "name": "operator",
          "type": "address"
        },
        {
          "indexed": false,
          "internalType": "bool",
          "name": "approved",
          "type": "bool"
        }
      ],
      "name": "ApprovalForAll",
      "type": "event"
    },
    {
      "anonymous": false,
      "inputs": [
        {
          "indexed": true,
          "internalType": "address",
          "name": "previousOwner",
          "type": "address"
        },
        {
          "indexed": true,
          "internalType": "address",
          "name": "newOwner",
          "type": "address"
        }
      ],
      "name": "OwnershipTransferred",
      "type": "event"
    },
    {
      "anonymous": false,
      "inputs": [
        {
          "indexed": true,
          "internalType": "address",
          "name": "operator",
          "type": "address"
        },
        {
          "indexed": true,
          "internalType": "address",
          "name": "from",
          "type": "address"
        },
        {
          "indexed": true,
          "internalType": "address",
          "name": "to",
          "type": "address"
        },
        {
          "indexed": false,
          "internalType": "uint256[]",
          "name": "ids",
          "type": "uint256[]"
        },
        {
          "indexed": false,
          "internalType": "uint256[]",
          "name": "values",
          "type": "uint256[]"
        }
      ],
      "name": "TransferBatch",
      "type": "event"
    },
    {
      "anonymous": false,
      "inputs": [
        {
          "indexed": true,
          "internalType": "address",
          "name": "operator",
          "type": "address"
        },
        {
          "indexed": true,
          "internalType": "address",
          "name": "from",
          "type": "address"
        },
        {
          "indexed": true,
          "internalType": "address",
          "name": "to",
          "type": "address"
        },
        {
          "indexed": false,
          "internalType": "uint256",
          "name": "id",
          "type": "uint256"
        },
        {
          "indexed": false,
          "internalType": "uint256",
          "name": "value",
          "type": "uint256"
        }
      ],
      "name": "TransferSingle",
      "type": "event"
    },
    {
      "anonymous": false,
      "inputs": [
        {
          "indexed": false,
          "internalType": "string",
          "name": "value",
          "type": "string"
        },
        {
          "indexed": true,
          "internalType": "uint256",
          "name": "id",
          "type": "uint256"
        }
      ],
      "name": "URI",
      "type": "event"
    },
    {
      "inputs": [
        {
          "internalType": "address",
          "name": "account",
          "type": "address"
        },
        {
          "internalType": "uint256",
          "name": "id",
          "type": "uint256"
        }
      ],
      "name": "balanceOf",
      "outputs": [
        {
          "internalType": "uint256",
          "name": "",
          "type": "uint256"
        }
      ],
      "stateMutability": "view",
      "type": "function"
    },
    {
      "inputs": [
        {
          "internalType": "address[]",
          "name": "accounts",
          "type": "address[]"
        },
        {
          "internalType": "uint256[]",
          "name": "ids",
          "type": "uint256[]"
        }
      ],
      "name": "balanceOfBatch",
      "outputs": [
        {
          "internalType": "uint256[]",
          "name": "",
          "type": "uint256[]"
        }
      ],
      "stateMutability": "view",
      "type": "function"
    },
    {
      "inputs": [
        {
          "internalType": "address",
          "name": "user",
          "type": "address"
        }
      ],
      "name": "getMintAllowance",
      "outputs": [
        {
          "internalType": "uint256",
          "name": "",
          "type": "uint256"
        }
      ],
      "stateMutability": "view",
      "type": "function"
    },
    {
      "inputs": [],
      "name": "getPrice",
      "outputs": [
        {
          "internalType": "uint256",
          "name": "",
          "type": "uint256"
        }
      ],
      "stateMutability": "view",
      "type": "function"
    },
    {
      "inputs": [
        {
          "internalType": "address",
          "name": "",
          "type": "address"
        }
      ],
      "name": "howManyMinted",
      "outputs": [
        {
          "internalType": "uint256",
          "name": "",
          "type": "uint256"
        }
      ],
      "stateMutability": "view",
      "type": "function"
    },
    {
      "inputs": [
        {
          "internalType": "address",
          "name": "account",
          "type": "address"
        },
        {
          "internalType": "address",
          "name": "operator",
          "type": "address"
        }
      ],
      "name": "isApprovedForAll",
      "outputs": [
        {
          "internalType": "bool",
          "name": "",
          "type": "bool"
        }
      ],
      "stateMutability": "view",
      "type": "function"
    },
    {
      "inputs": [],
      "name": "mint",
      "outputs": [],
      "stateMutability": "payable",
      "type": "function"
    },
    {
      "inputs": [
        {
          "internalType": "uint256",
          "name": "amount",
          "type": "uint256"
        }
      ],
      "name": "mintBatch",
      "outputs": [],
      "stateMutability": "payable",
      "type": "function"
    },
    {
      "inputs": [],
      "name": "minted",
      "outputs": [
        {
          "internalType": "uint256",
          "name": "",
          "type": "uint256"
        }
      ],
      "stateMutability": "view",
      "type": "function"
    },
    {
      "inputs": [],
      "name": "name",
      "outputs": [
        {
          "internalType": "string",
          "name": "",
          "type": "string"
        }
      ],
      "stateMutability": "view",
      "type": "function"
    },
    {
      "inputs": [],
      "name": "owner",
      "outputs": [
        {
          "internalType": "address",
          "name": "",
          "type": "address"
        }
      ],
      "stateMutability": "view",
      "type": "function"
    },
    {
      "inputs": [],
      "name": "renounceOwnership",
      "outputs": [],
      "stateMutability": "nonpayable",
      "type": "function"
    },
    {
      "inputs": [
        {
          "internalType": "address",
          "name": "from",
          "type": "address"
        },
        {
          "internalType": "address",
          "name": "to",
          "type": "address"
        },
        {
          "internalType": "uint256[]",
          "name": "ids",
          "type": "uint256[]"
        },
        {
          "internalType": "uint256[]",
          "name": "amounts",
          "type": "uint256[]"
        },
        {
          "internalType": "bytes",
          "name": "data",
          "type": "bytes"
        }
      ],
      "name": "safeBatchTransferFrom",
      "outputs": [],
      "stateMutability": "nonpayable",
      "type": "function"
    },
    {
      "inputs": [
        {
          "internalType": "address",
          "name": "from",
          "type": "address"
        },
        {
          "internalType": "address",
          "name": "to",
          "type": "address"
        },
        {
          "internalType": "uint256",
          "name": "id",
          "type": "uint256"
        },
        {
          "internalType": "uint256",
          "name": "amount",
          "type": "uint256"
        },
        {
          "internalType": "bytes",
          "name": "data",
          "type": "bytes"
        }
      ],
      "name": "safeTransferFrom",
      "outputs": [],
      "stateMutability": "nonpayable",
      "type": "function"
    },
    {
      "inputs": [
        {
          "internalType": "address",
          "name": "operator",
          "type": "address"
        },
        {
          "internalType": "bool",
          "name": "approved",
          "type": "bool"
        }
      ],
      "name": "setApprovalForAll",
      "outputs": [],
      "stateMutability": "nonpayable",
      "type": "function"
    },
    {
      "inputs": [
        {
          "internalType": "string",
          "name": "_name",
          "type": "string"
        }
      ],
      "name": "setName",
      "outputs": [],
      "stateMutability": "nonpayable",
      "type": "function"
    },
    {
      "inputs": [
        {
          "internalType": "uint256",
          "name": "_newPrice",
          "type": "uint256"
        }
      ],
      "name": "setPrice",
      "outputs": [],
      "stateMutability": "nonpayable",
      "type": "function"
    },
    {
      "inputs": [
        {
          "internalType": "string",
          "name": "_newuri",
          "type": "string"
        }
      ],
      "name": "setURI",
      "outputs": [],
      "stateMutability": "nonpayable",
      "type": "function"
    },
    {
      "inputs": [
        {
          "internalType": "uint256",
          "name": "_newPrice",
          "type": "uint256"
        }
      ],
      "name": "setWhitelistPrice",
      "outputs": [],
      "stateMutability": "nonpayable",
      "type": "function"
    },
    {
      "inputs": [
        {
          "internalType": "bytes4",
          "name": "interfaceId",
          "type": "bytes4"
        }
      ],
      "name": "supportsInterface",
      "outputs": [
        {
          "internalType": "bool",
          "name": "",
          "type": "bool"
        }
      ],
      "stateMutability": "view",
      "type": "function"
    },
    {
      "inputs": [
        {
          "internalType": "address",
          "name": "newOwner",
          "type": "address"
        }
      ],
      "name": "transferOwnership",
      "outputs": [],
      "stateMutability": "nonpayable",
      "type": "function"
    },
    {
      "inputs": [
        {
          "internalType": "address",
          "name": "user",
          "type": "address"
        },
        {
          "internalType": "uint256",
          "name": "tier",
          "type": "uint256"
        }
      ],
      "name": "updateTier",
      "outputs": [],
      "stateMutability": "nonpayable",
      "type": "function"
    },
    {
      "inputs": [
        {
          "internalType": "uint256",
          "name": "",
          "type": "uint256"
        }
      ],
      "name": "uri",
      "outputs": [
        {
          "internalType": "string",
          "name": "",
          "type": "string"
        }
      ],
      "stateMutability": "view",
      "type": "function"
    },
    {
      "inputs": [
        {
          "internalType": "address",
          "name": "",
          "type": "address"
        }
      ],
      "name": "whitelistAllowance",
      "outputs": [
        {
          "internalType": "uint256",
          "name": "",
          "type": "uint256"
        }
      ],
      "stateMutability": "view",
      "type": "function"
    },
    {
      "inputs": [
        {
          "internalType": "address payable",
          "name": "addr",
          "type": "address"
        }
      ],
      "name": "withdrawAllFromWalletBalance",
      "outputs": [],
      "stateMutability": "nonpayable",
      "type": "function"
    },
    {
      "inputs": [
        {
          "internalType": "address payable",
          "name": "addr",
          "type": "address"
        },
        {
          "internalType": "uint256",
          "name": "amount",
          "type": "uint256"
        }
      ],
      "name": "withdrawFromWalletBalance",
      "outputs": [],
      "stateMutability": "nonpayable",
      "type": "function"
    },
    {
      "stateMutability": "payable",
      "type": "receive"
    }
  ],
  "bytecode": {
    "object": "0x608060405261261560055567013fbe85edc9000060065567011c37937e0800006007553480156200002f57600080fd5b506040518060600160405280603f815260200162002ca9603f91396200005533620000a6565b6200006081620000f6565b5060408051808201909152601a81527f486f6f7065727665727365204e465420436f6c6c656374696f6e0000000000006020820152620000a0906200010f565b62000260565b600080546001600160a01b038381166001600160a01b0319831681178455604051919092169283917f8be0079c531659141344cd1fd0a4f28419497f9722a3daafe3b4186f6b6457e09190a35050565b80516200010b9060039060208401906200017e565b5050565b6000546001600160a01b031633146200016e5760405162461bcd60e51b815260206004820181905260248201527f4f776e61626c653a2063616c6c6572206973206e6f7420746865206f776e6572604482015260640160405180910390fd5b80516200010b9060099060208401905b8280546200018c9062000224565b90600052602060002090601f016020900481019282620001b05760008555620001fb565b82601f10620001cb57805160ff1916838001178555620001fb565b82800160010185558215620001fb579182015b82811115620001fb578251825591602001919060010190620001de565b50620002099291506200020d565b5090565b5b808211156200020957600081556001016200020e565b600181811c908216806200023957607f821691505b6020821081036200025a57634e487b7160e01b600052602260045260246000fd5b50919050565b612a3980620002706000396000f3fe6080604052600436106101845760003560e01c80634f02c420116100d157806391b7f5ed1161008a578063c47f002711610064578063c47f002714610461578063e985e9c514610481578063f242432a146104ca578063f2fde38b146104ea57600080fd5b806391b7f5ed1461040c57806398d5fdca1461042c578063a22cb4651461044157600080fd5b80634f02c42014610359578063715018a61461036f578063717d57d31461038457806380417c7b146103a45780638da5cb5b146103c457806390d6dd70146103ec57600080fd5b80631249c58b1161013e5780632df98dfe116101185780632df98dfe146102bf5780632eb2c2d6146102ec5780634a36703b1461030c5780634e1273f41461032c57600080fd5b80631249c58b14610284578063172fb2a01461028c57806320e409b4146102ac57600080fd5b8062fdd58e1461019057806301ffc9a7146101c357806302fe5305146101f357806306fdde0314610215578063084ec67c146102375780630e89341c1461026457600080fd5b3661018b57005b600080fd5b34801561019c57600080fd5b506101b06101ab366004612021565b61050a565b6040519081526020015b60405180910390f35b3480156101cf57600080fd5b506101e36101de366004612063565b6105a3565b60405190151581526020016101ba565b3480156101ff57600080fd5b5061021361020e366004612126565b6105f5565b005b34801561022157600080fd5b5061022a61062b565b6040516101ba91906121c3565b34801561024357600080fd5b506101b06102523660046121d6565b600a6020526000908152604090205481565b34801561027057600080fd5b5061022a61027f3660046121f3565b6106b9565b61021361074d565b34801561029857600080fd5b506102136102a7366004612021565b610a67565b6102136102ba3660046121f3565b610ba0565b3480156102cb57600080fd5b506101b06102da3660046121d6565b600b6020526000908152604090205481565b3480156102f857600080fd5b506102136103073660046122c0565b6111a8565b34801561031857600080fd5b506101b06103273660046121d6565b61123f565b34801561033857600080fd5b5061034c61034736600461236d565b6112c3565b6040516101ba9190612474565b34801561036557600080fd5b506101b060045481565b34801561037b57600080fd5b506102136113ec565b34801561039057600080fd5b5061021361039f3660046121f3565b611420565b3480156103b057600080fd5b506102136103bf366004612021565b61144f565b3480156103d057600080fd5b506000546040516001600160a01b0390911681526020016101ba565b3480156103f857600080fd5b506102136104073660046121d6565b611510565b34801561041857600080fd5b506102136104273660046121f3565b611544565b34801561043857600080fd5b506006546101b0565b34801561044d57600080fd5b5061021361045c366004612487565b611573565b34801561046d57600080fd5b5061021361047c366004612126565b61157e565b34801561048d57600080fd5b506101e361049c3660046124c5565b6001600160a01b03918216600090815260026020908152604080832093909416825291909152205460ff1690565b3480156104d657600080fd5b506102136104e53660046124f3565b6115bb565b3480156104f657600080fd5b506102136105053660046121d6565b611642565b60006001600160a01b03831661057b5760405162461bcd60e51b815260206004820152602b60248201527f455243313135353a2062616c616e636520717565727920666f7220746865207a60448201526a65726f206164647265737360a81b60648201526084015b60405180910390fd5b5060009081526001602090815260408083206001600160a01b03949094168352929052205490565b60006001600160e01b03198216636cdb3d1360e11b14806105d457506001600160e01b031982166303a24d0760e21b145b806105ef57506301ffc9a760e01b6001600160e01b03198316145b92915050565b6000546001600160a01b0316331461061f5760405162461bcd60e51b81526004016105729061255b565b610628816116da565b50565b6009805461063890612590565b80601f016020809104026020016040519081016040528092919081815260200182805461066490612590565b80156106b15780601f10610686576101008083540402835291602001916106b1565b820191906000526020600020905b81548152906001019060200180831161069457829003601f168201915b505050505081565b6060600380546106c890612590565b80601f01602080910402602001604051908101604052809291908181526020018280546106f490612590565b80156107415780601f1061071657610100808354040283529160200191610741565b820191906000526020600020905b81548152906001019060200180831161072457829003601f168201915b50505050509050919050565b3360405160200161075e91906125ca565b604051602081830303815290604052805190602001206107866000546001600160a01b031690565b60405160200161079691906125ca565b604051602081830303815290604052805190602001200361082d576005546107bf9060fa6125fd565b6004546107cd9060016125fd565b11156107ec5760405163dcce839160e01b815260040161057290612615565b600480549060006107fc8361264a565b919050555061082b33600454600161081491906125fd565b6001604051806020016040528060008152506116ed565b565b336000908152600a60205260409020541561086c576362bd49f04210156108675760405163dcce839160e01b815260040161057290612663565b610891565b6362bd49f04210156108915760405163dcce839160e01b815260040161057290612663565b336000908152600a6020526040902054158015906108c85750336000908152600b6020908152604080832054600a90925290912054145b156109125760405163dcce839160e01b81526020600482015260196024820152782cb7ba9031b0b73737ba1036b4b73a1030b73c9036b7b9329760391b6044820152606401610572565b336000908152600a602052604090205415801561093e5750336000908152600b60205260409020546001145b156109885760405163dcce839160e01b81526020600482015260196024820152782cb7ba9031b0b73737ba1036b4b73a1030b73c9036b7b9329760391b6044820152606401610572565b6005546004546109999060016125fd565b11156109b85760405163dcce839160e01b815260040161057290612615565b336000908152600a6020526040902054156109f5576007543410156109f05760405163dcce839160e01b815260040161057290612686565b610a18565b600654341015610a185760405163dcce839160e01b815260040161057290612686565b60048054906000610a288361264a565b9190505550610a4033600454600161081491906125fd565b336000908152600b60205260408120805460019290610a609084906125fd565b9091555050565b6000546001600160a01b03163314610a915760405162461bcd60e51b81526004016105729061255b565b6362bd49f0421115610ae65760405163dcce839160e01b815260206004820152601760248201527f5570646174696e67207469657220746f6f206c6174652e0000000000000000006044820152606401610572565b6001811080610af55750600481115b15610b435760405163dcce839160e01b815260206004820152601d60248201527f54696572206d757374206265206265747765656e203120616e6420342e0000006044820152606401610572565b60018110158015610b55575060038111155b15610b77576001600160a01b03919091166000908152600a6020526040902055565b610b828160016125fd565b6001600160a01b0383166000908152600a60205260409020555b5050565b80600103610c0d5760405163dcce839160e01b815260206004820152603360248201527f556e61626c6520746f206261746368206d696e74207468697320616d6f756e7460448201527217102ab9b2903932b3bab630b91036b4b73a1760691b6064820152608401610572565b33604051602001610c1e91906125ca565b60405160208183030381529060405280519060200120610c466000546001600160a01b031690565b604051602001610c5691906125ca565b6040516020818303038152906040528051906020012003610e3757600554610c7f9060fa6125fd565b81600454610c8d91906125fd565b1115610cac5760405163dcce839160e01b815260040161057290612615565b604b811115610cfe5760405163dcce839160e01b815260206004820152601f60248201527f4d696e74203735206f72206c657373204e46547320617420612074696d652e006044820152606401610572565b6000816001600160401b03811115610d1857610d18612087565b604051908082528060200260200182016040528015610d41578160200160208202803683370190505b5090506000826001600160401b03811115610d5e57610d5e612087565b604051908082528060200260200182016040528015610d87578160200160208202803683370190505b50905060005b83811015610dfd5780600454610da391906125fd565b610dae9060016125fd565b838281518110610dc057610dc06126db565b6020026020010181815250506001828281518110610de057610de06126db565b602090810291909101015280610df58161264a565b915050610d8d565b508260046000828254610e1091906125fd565b92505081905550610e32338383604051806020016040528060008152506117c9565b505050565b336000908152600a602052604090205415610e76576362bd49f0421015610e715760405163dcce839160e01b815260040161057290612663565b610e9b565b6362bd49f0421015610e9b5760405163dcce839160e01b815260040161057290612663565b336000908152600a6020908152604080832054600b90925290912054610ec29083906125fd565b1115610f115760405163dcce839160e01b815260206004820181905260248201527f596f752063616e6e6f74206d696e742074686174206d616e79206974656d732e6044820152606401610572565b336000908152600a6020526040902054610f8d5760405163dcce839160e01b815260206004820152603660248201527f596f75277265206e6f742077686974656c69737465642c20736f20796f75206360448201527530b713ba1036b4b73a1036b7b932903a3430b710189760511b6064820152608401610572565b80600754610f9b91906126f1565b341015610fbb5760405163dcce839160e01b815260040161057290612686565b336000908152600a602052604090205481111561101b5760405163dcce839160e01b815260206004820181905260248201527f596f752063616e6e6f74206d696e742074686174206d616e79206974656d732e6044820152606401610572565b6005548160045461102c91906125fd565b111561104b5760405163dcce839160e01b815260040161057290612615565b6000816001600160401b0381111561106557611065612087565b60405190808252806020026020018201604052801561108e578160200160208202803683370190505b5090506000826001600160401b038111156110ab576110ab612087565b6040519080825280602002602001820160405280156110d4578160200160208202803683370190505b50905060005b8381101561114a57806004546110f091906125fd565b6110fb9060016125fd565b83828151811061110d5761110d6126db565b602002602001018181525050600182828151811061112d5761112d6126db565b6020908102919091010152806111428161264a565b9150506110da565b50826004600082825461115d91906125fd565b9250508190555061117f338383604051806020016040528060008152506117c9565b336000908152600b60205260408120805485929061119e9084906125fd565b9091555050505050565b6001600160a01b0385163314806111c457506111c4853361049c565b61122b5760405162461bcd60e51b815260206004820152603260248201527f455243313135353a207472616e736665722063616c6c6572206973206e6f74206044820152711bdddb995c881b9bdc88185c1c1c9bdd995960721b6064820152608401610572565b6112388585858585611915565b5050505050565b6001600160a01b0381166000908152600a602052604081205481036112a75760405163dcce839160e01b815260206004820152601860248201527f596f7520617265206e6f742077686974656c69737465642e00000000000000006044820152606401610572565b506001600160a01b03166000908152600a602052604090205490565b606081518351146113285760405162461bcd60e51b815260206004820152602960248201527f455243313135353a206163636f756e747320616e6420696473206c656e677468604482015268040dad2e6dac2e8c6d60bb1b6064820152608401610572565b600083516001600160401b0381111561134357611343612087565b60405190808252806020026020018201604052801561136c578160200160208202803683370190505b50905060005b84518110156113e4576113b7858281518110611390576113906126db565b60200260200101518583815181106113aa576113aa6126db565b602002602001015161050a565b8282815181106113c9576113c96126db565b60209081029190910101526113dd8161264a565b9050611372565b509392505050565b6000546001600160a01b031633146114165760405162461bcd60e51b81526004016105729061255b565b61082b6000611ab4565b6000546001600160a01b0316331461144a5760405162461bcd60e51b81526004016105729061255b565b600755565b6000546001600160a01b031633146114795760405162461bcd60e51b81526004016105729061255b565b804710156114da5760405163dcce839160e01b815260206004820152602760248201527f57616c6c65742062616c616e636520746f6f206c6f7720746f2066756e6420776044820152666974686472617760c81b6064820152608401610572565b6040516001600160a01b0383169082156108fc029083906000818181858888f19350505050158015610e32573d6000803e3d6000fd5b6000546001600160a01b0316331461153a5760405162461bcd60e51b81526004016105729061255b565b610628814761144f565b6000546001600160a01b0316331461156e5760405162461bcd60e51b81526004016105729061255b565b600655565b610b9c338383611b04565b6000546001600160a01b031633146115a85760405162461bcd60e51b81526004016105729061255b565b8051610b9c906009906020840190611f73565b6001600160a01b0385163314806115d757506115d7853361049c565b6116355760405162461bcd60e51b815260206004820152602960248201527f455243313135353a2063616c6c6572206973206e6f74206f776e6572206e6f7260448201526808185c1c1c9bdd995960ba1b6064820152608401610572565b6112388585858585611be4565b6000546001600160a01b0316331461166c5760405162461bcd60e51b81526004016105729061255b565b6001600160a01b0381166116d15760405162461bcd60e51b815260206004820152602660248201527f4f776e61626c653a206e6577206f776e657220697320746865207a65726f206160448201526564647265737360d01b6064820152608401610572565b61062881611ab4565b8051610b9c906003906020840190611f73565b6001600160a01b0384166117135760405162461bcd60e51b815260040161057290612710565b33600061171f85611d12565b9050600061172c85611d12565b905060008681526001602090815260408083206001600160a01b038b168452909152812080548792906117609084906125fd565b909155505060408051878152602081018790526001600160a01b03808a1692600092918716917fc3d58168c5ae7397731d063d5bbf3d657854427343f4c083240f7aacaa2d0f62910160405180910390a46117c083600089898989611d5d565b50505050505050565b6001600160a01b0384166117ef5760405162461bcd60e51b815260040161057290612710565b81518351146118105760405162461bcd60e51b815260040161057290612751565b3360005b84518110156118ad5783818151811061182f5761182f6126db565b60200260200101516001600087848151811061184d5761184d6126db565b602002602001015181526020019081526020016000206000886001600160a01b03166001600160a01b03168152602001908152602001600020600082825461189591906125fd565b909155508190506118a58161264a565b915050611814565b50846001600160a01b031660006001600160a01b0316826001600160a01b03167f4a39dc06d4c0dbc64b70af90fd698a233a518aa5d07e595d983b8c0526c8f7fb87876040516118fe929190612799565b60405180910390a461123881600087878787611eb8565b81518351146119365760405162461bcd60e51b815260040161057290612751565b6001600160a01b03841661195c5760405162461bcd60e51b8152600401610572906127c7565b3360005b8451811015611a4657600085828151811061197d5761197d6126db565b60200260200101519050600085838151811061199b5761199b6126db565b60209081029190910181015160008481526001835260408082206001600160a01b038e1683529093529190912054909150818110156119ec5760405162461bcd60e51b81526004016105729061280c565b60008381526001602090815260408083206001600160a01b038e8116855292528083208585039055908b16825281208054849290611a2b9084906125fd565b9250508190555050505080611a3f9061264a565b9050611960565b50846001600160a01b0316866001600160a01b0316826001600160a01b03167f4a39dc06d4c0dbc64b70af90fd698a233a518aa5d07e595d983b8c0526c8f7fb8787604051611a96929190612799565b60405180910390a4611aac818787878787611eb8565b505050505050565b600080546001600160a01b038381166001600160a01b0319831681178455604051919092169283917f8be0079c531659141344cd1fd0a4f28419497f9722a3daafe3b4186f6b6457e09190a35050565b816001600160a01b0316836001600160a01b031603611b775760405162461bcd60e51b815260206004820152602960248201527f455243313135353a2073657474696e6720617070726f76616c20737461747573604482015268103337b91039b2b63360b91b6064820152608401610572565b6001600160a01b03838116600081815260026020908152604080832094871680845294825291829020805460ff191686151590811790915591519182527f17307eab39ab6107e8899845ad3d59bd9653f200f220920489ca2b5937696c31910160405180910390a3505050565b6001600160a01b038416611c0a5760405162461bcd60e51b8152600401610572906127c7565b336000611c1685611d12565b90506000611c2385611d12565b905060008681526001602090815260408083206001600160a01b038c16845290915290205485811015611c685760405162461bcd60e51b81526004016105729061280c565b60008781526001602090815260408083206001600160a01b038d8116855292528083208985039055908a16825281208054889290611ca79084906125fd565b909155505060408051888152602081018890526001600160a01b03808b16928c821692918816917fc3d58168c5ae7397731d063d5bbf3d657854427343f4c083240f7aacaa2d0f62910160405180910390a4611d07848a8a8a8a8a611d5d565b505050505050505050565b60408051600180825281830190925260609160009190602080830190803683370190505090508281600081518110611d4c57611d4c6126db565b602090810291909101015292915050565b6001600160a01b0384163b15611aac5760405163f23a6e6160e01b81526001600160a01b0385169063f23a6e6190611da19089908990889088908890600401612856565b6020604051808303816000875af1925050508015611ddc575060408051601f3d908101601f19168201909252611dd99181019061289b565b60015b611e8857611de86128b8565b806308c379a003611e215750611dfc6128d4565b80611e075750611e23565b8060405162461bcd60e51b815260040161057291906121c3565b505b60405162461bcd60e51b815260206004820152603460248201527f455243313135353a207472616e7366657220746f206e6f6e20455243313135356044820152732932b1b2b4bb32b91034b6b83632b6b2b73a32b960611b6064820152608401610572565b6001600160e01b0319811663f23a6e6160e01b146117c05760405162461bcd60e51b81526004016105729061295d565b6001600160a01b0384163b15611aac5760405163bc197c8160e01b81526001600160a01b0385169063bc197c8190611efc90899089908890889088906004016129a5565b6020604051808303816000875af1925050508015611f37575060408051601f3d908101601f19168201909252611f349181019061289b565b60015b611f4357611de86128b8565b6001600160e01b0319811663bc197c8160e01b146117c05760405162461bcd60e51b81526004016105729061295d565b828054611f7f90612590565b90600052602060002090601f016020900481019282611fa15760008555611fe7565b82601f10611fba57805160ff1916838001178555611fe7565b82800160010185558215611fe7579182015b82811115611fe7578251825591602001919060010190611fcc565b50611ff3929150611ff7565b5090565b5b80821115611ff35760008155600101611ff8565b6001600160a01b038116811461062857600080fd5b6000806040838503121561203457600080fd5b823561203f8161200c565b946020939093013593505050565b6001600160e01b03198116811461062857600080fd5b60006020828403121561207557600080fd5b81356120808161204d565b9392505050565b634e487b7160e01b600052604160045260246000fd5b601f8201601f191681016001600160401b03811182821017156120c2576120c2612087565b6040525050565b60006001600160401b038311156120e2576120e2612087565b6040516120f9601f8501601f19166020018261209d565b80915083815284848401111561210e57600080fd5b83836020830137600060208583010152509392505050565b60006020828403121561213857600080fd5b81356001600160401b0381111561214e57600080fd5b8201601f8101841361215f57600080fd5b61216e848235602084016120c9565b949350505050565b6000815180845260005b8181101561219c57602081850181015186830182015201612180565b818111156121ae576000602083870101525b50601f01601f19169290920160200192915050565b6020815260006120806020830184612176565b6000602082840312156121e857600080fd5b81356120808161200c565b60006020828403121561220557600080fd5b5035919050565b60006001600160401b0382111561222557612225612087565b5060051b60200190565b600082601f83011261224057600080fd5b8135602061224d8261220c565b60405161225a828261209d565b83815260059390931b850182019282810191508684111561227a57600080fd5b8286015b84811015612295578035835291830191830161227e565b509695505050505050565b600082601f8301126122b157600080fd5b612080838335602085016120c9565b600080600080600060a086880312156122d857600080fd5b85356122e38161200c565b945060208601356122f38161200c565b935060408601356001600160401b038082111561230f57600080fd5b61231b89838a0161222f565b9450606088013591508082111561233157600080fd5b61233d89838a0161222f565b9350608088013591508082111561235357600080fd5b50612360888289016122a0565b9150509295509295909350565b6000806040838503121561238057600080fd5b82356001600160401b038082111561239757600080fd5b818501915085601f8301126123ab57600080fd5b813560206123b88261220c565b6040516123c5828261209d565b83815260059390931b85018201928281019150898411156123e557600080fd5b948201945b8386101561240c5785356123fd8161200c565b825294820194908201906123ea565b9650508601359250508082111561242257600080fd5b5061242f8582860161222f565b9150509250929050565b600081518084526020808501945080840160005b838110156124695781518752958201959082019060010161244d565b509495945050505050565b6020815260006120806020830184612439565b6000806040838503121561249a57600080fd5b82356124a58161200c565b9150602083013580151581146124ba57600080fd5b809150509250929050565b600080604083850312156124d857600080fd5b82356124e38161200c565b915060208301356124ba8161200c565b600080600080600060a0868803121561250b57600080fd5b85356125168161200c565b945060208601356125268161200c565b9350604086013592506060860135915060808601356001600160401b0381111561254f57600080fd5b612360888289016122a0565b6020808252818101527f4f776e61626c653a2063616c6c6572206973206e6f7420746865206f776e6572604082015260600190565b600181811c908216806125a457607f821691505b6020821081036125c457634e487b7160e01b600052602260045260246000fd5b50919050565b60609190911b6bffffffffffffffffffffffff1916815260140190565b634e487b7160e01b600052601160045260246000fd5b60008219821115612610576126106125e7565b500190565b6020808252818101527f4d6178696d756d20737570706c7920686173206265656e20726561636865642e604082015260600190565b60006001820161265c5761265c6125e7565b5060010190565b602080825260099082015268546f6f206561726c7960b81b604082015260600190565b60208082526035908201527f596f7520646f206e6f74206861766520656e6f75676820457468657220746f20604082015274283ab931b430b9b2903a3432b9b29034ba32b6b99760591b606082015260800190565b634e487b7160e01b600052603260045260246000fd5b600081600019048311821515161561270b5761270b6125e7565b500290565b60208082526021908201527f455243313135353a206d696e7420746f20746865207a65726f206164647265736040820152607360f81b606082015260800190565b60208082526028908201527f455243313135353a2069647320616e6420616d6f756e7473206c656e677468206040820152670dad2e6dac2e8c6d60c31b606082015260800190565b6040815260006127ac6040830185612439565b82810360208401526127be8185612439565b95945050505050565b60208082526025908201527f455243313135353a207472616e7366657220746f20746865207a65726f206164604082015264647265737360d81b606082015260800190565b6020808252602a908201527f455243313135353a20696e73756666696369656e742062616c616e636520666f60408201526939103a3930b739b332b960b11b606082015260800190565b6001600160a01b03868116825285166020820152604081018490526060810183905260a06080820181905260009061289090830184612176565b979650505050505050565b6000602082840312156128ad57600080fd5b81516120808161204d565b600060033d11156128d15760046000803e5060005160e01c5b90565b600060443d10156128e25790565b6040516003193d81016004833e81513d6001600160401b03816024840111818411171561291157505050505090565b82850191508151818111156129295750505050505090565b843d87010160208285010111156129435750505050505090565b6129526020828601018761209d565b509095945050505050565b60208082526028908201527f455243313135353a204552433131353552656365697665722072656a656374656040820152676420746f6b656e7360c01b606082015260800190565b6001600160a01b0386811682528516602082015260a0604082018190526000906129d190830186612439565b82810360608401526129e38186612439565b905082810360808401526129f78185612176565b9897505050505050505056fea26469706673582212207bf77f2212d3c41670db18afe0a456ff550d08cfbb654d822ea7bf17bc1c437864736f6c634300080e0033697066733a2f2f516d6648347465356a6a456e3837727053334b694d33443871636958575878565a503233676672625372614256452f7b69647d2e6a736f6e",
    "linkReferences": {}
  },
  "methodIdentifiers": {
    "balanceOf(address,uint256)": "00fdd58e",
    "balanceOfBatch(address[],uint256[])": "4e1273f4",
    "getMintAllowance(address)": "4a36703b",
    "getPrice()": "98d5fdca",
    "howManyMinted(address)": "2df98dfe",
    "isApprovedForAll(address,address)": "e985e9c5",
    "mint()": "1249c58b",
    "mintBatch(uint256)": "20e409b4",
    "minted()": "4f02c420",
    "name()": "06fdde03",
    "owner()": "8da5cb5b",
    "renounceOwnership()": "715018a6",
    "safeBatchTransferFrom(address,address,uint256[],uint256[],bytes)": "2eb2c2d6",
    "safeTransferFrom(address,address,uint256,uint256,bytes)": "f242432a",
    "setApprovalForAll(address,bool)": "a22cb465",
    "setName(string)": "c47f0027",
    "setPrice(uint256)": "91b7f5ed",
    "setURI(string)": "02fe5305",
    "setWhitelistPrice(uint256)": "717d57d3",
    "supportsInterface(bytes4)": "01ffc9a7",
    "transferOwnership(address)": "f2fde38b",
    "updateTier(address,uint256)": "172fb2a0",
    "uri(uint256)": "0e89341c",
    "whitelistAllowance(address)": "084ec67c",
    "withdrawAllFromWalletBalance(address)": "90d6dd70",
    "withdrawFromWalletBalance(address,uint256)": "80417c7b"
  },
  "id": 15
}